{
  "contractName": "CoffeeShop",
  "abi": [
    {
      "inputs": [],
      "stateMutability": "nonpayable",
      "type": "constructor"
    },
    {
      "anonymous": false,
      "inputs": [
        {
          "indexed": true,
          "internalType": "address",
          "name": "customer",
          "type": "address"
        },
        {
          "indexed": true,
          "internalType": "uint256",
          "name": "itemId",
          "type": "uint256"
        }
      ],
      "name": "OrderPlaced",
      "type": "event"
    },
    {
      "inputs": [],
      "name": "ShopOwner",
      "outputs": [
        {
          "internalType": "address",
          "name": "",
          "type": "address"
        }
      ],
      "stateMutability": "view",
      "type": "function"
    },
    {
      "inputs": [
        {
          "internalType": "uint256",
          "name": "",
          "type": "uint256"
        }
      ],
      "name": "items",
      "outputs": [
        {
          "internalType": "uint256",
          "name": "price",
          "type": "uint256"
        },
        {
          "internalType": "address",
          "name": "owner",
          "type": "address"
        },
        {
          "internalType": "uint256",
          "name": "noOfItems",
          "type": "uint256"
        }
      ],
      "stateMutability": "view",
      "type": "function"
    },
    {
      "inputs": [
        {
          "internalType": "uint256",
          "name": "_index",
          "type": "uint256"
        },
        {
          "internalType": "string",
          "name": "itemName",
          "type": "string"
        }
      ],
      "name": "buyItem",
      "outputs": [],
      "stateMutability": "payable",
      "type": "function"
    },
    {
      "inputs": [],
      "name": "withdrawMoney",
      "outputs": [],
      "stateMutability": "nonpayable",
      "type": "function"
    }
  ],
  "bytecode": "0x6080604052336000806101000a81548173ffffffffffffffffffffffffffffffffffffffff021916908373ffffffffffffffffffffffffffffffffffffffff1602179055503480156200005157600080fd5b50336000806101000a81548173ffffffffffffffffffffffffffffffffffffffff021916908373ffffffffffffffffffffffffffffffffffffffff16021790555060005b600a8110156200059e57662386f26fc10000600182600a8110620000be57620000bd62000655565b5b60050201600001819055506000600182600a8110620000e257620000e162000655565b5b6005020160010160006101000a81548173ffffffffffffffffffffffffffffffffffffffff021916908373ffffffffffffffffffffffffffffffffffffffff1602179055506005600182600a811062000140576200013f62000655565b5b6005020160020181905550600181600a811062000162576200016162000655565b5b6005020160030180600181540180825580915050600190039060005260206000200160006040518060400160405280600881526020017f457370726573736f00000000000000000000000000000000000000000000000081525090919091509080519060200190620001d6929190620005a5565b50600181600a8110620001ee57620001ed62000655565b5b600502016004016706f05b59d3b200009080600181540180825580915050600190039060005260206000200160009091909190915055600181600a81106200023b576200023a62000655565b5b6005020160030180600181540180825580915050600190039060005260206000200160006040518060400160405280600a81526020017f43617070756363696e6f0000000000000000000000000000000000000000000081525090919091509080519060200190620002af929190620005a5565b50600181600a8110620002c757620002c662000655565b5b600502016004016709b6e64a8ec600009080600181540180825580915050600190039060005260206000200160009091909190915055600181600a811062000314576200031362000655565b5b6005020160030180600181540180825580915050600190039060005260206000200160006040518060400160405280600581526020017f4c617474650000000000000000000000000000000000000000000000000000008152509091909150908051906020019062000388929190620005a5565b50600181600a8110620003a0576200039f62000655565b5b6005020160040167058d15e1762800009080600181540180825580915050600190039060005260206000200160009091909190915055600181600a8110620003ed57620003ec62000655565b5b6005020160030180600181540180825580915050600190039060005260206000200160006040518060400160405280600581526020017f4d6f6368610000000000000000000000000000000000000000000000000000008152509091909150908051906020019062000461929190620005a5565b50600181600a811062000479576200047862000655565b5b60050201600401670429d069189e00009080600181540180825580915050600190039060005260206000200160009091909190915055600181600a8110620004c657620004c562000655565b5b6005020160030180600181540180825580915050600190039060005260206000200160006040518060400160405280600981526020017f416d65726963616e6f0000000000000000000000000000000000000000000000815250909190915090805190602001906200053a929190620005a5565b50600181600a811062000552576200055162000655565b5b60050201600401670b1a2bc2ec500000908060018154018082558091505060019003906000526020600020016000909190919091505580806200059590620006bd565b91505062000095565b5062000770565b828054620005b3906200073a565b90600052602060002090601f016020900481019282620005d7576000855562000623565b82601f10620005f257805160ff191683800117855562000623565b8280016001018555821562000623579182015b828111156200062257825182559160200191906001019062000605565b5b50905062000632919062000636565b5090565b5b808211156200065157600081600090555060010162000637565b5090565b7f4e487b7100000000000000000000000000000000000000000000000000000000600052603260045260246000fd5b7f4e487b7100000000000000000000000000000000000000000000000000000000600052601160045260246000fd5b6000819050919050565b6000620006ca82620006b3565b91507fffffffffffffffffffffffffffffffffffffffffffffffffffffffffffffffff8214156200070057620006ff62000684565b5b600182019050919050565b7f4e487b7100000000000000000000000000000000000000000000000000000000600052602260045260246000fd5b600060028204905060018216806200075357607f821691505b602082108114156200076a57620007696200070b565b5b50919050565b6109fe80620007806000396000f3fe60806040526004361061003f5760003560e01c80634e71b35c146100445780636ef474ac14610060578063ac4460021461008b578063bfb231d2146100a2575b600080fd5b61005e6004803603810190610059919061073f565b6100e1565b005b34801561006c57600080fd5b50610075610396565b60405161008291906107dc565b60405180910390f35b34801561009757600080fd5b506100a06103ba565b005b3480156100ae57600080fd5b506100c960048036038101906100c491906107f7565b61047b565b6040516100d893929190610833565b60405180910390f35b600a821080156100f2575060008210155b6100fb57600080fd5b600073ffffffffffffffffffffffffffffffffffffffff16600183600a81106101275761012661086a565b5b6005020160010160009054906101000a900473ffffffffffffffffffffffffffffffffffffffff1673ffffffffffffffffffffffffffffffffffffffff161461016f57600080fd5b60007fffffffffffffffffffffffffffffffffffffffffffffffffffffffffffffffff905060005b600184600a81106101ab576101aa61086a565b5b600502016002015481101561029f5761028383600186600a81106101d2576101d161086a565b5b6005020160030183815481106101eb576101ea61086a565b5b906000526020600020018054610200906108c8565b80601f016020809104026020016040519081016040528092919081815260200182805461022c906108c8565b80156102795780601f1061024e57610100808354040283529160200191610279565b820191906000526020600020905b81548152906001019060200180831161025c57829003601f168201915b50505050506104cb565b1561028c578091505b808061029790610929565b915050610197565b507fffffffffffffffffffffffffffffffffffffffffffffffffffffffffffffffff8114156102cd57600080fd5b600183600a81106102e1576102e061086a565b5b6005020160040181815481106102fa576102f961086a565b5b9060005260206000200154600184600a81106103195761031861086a565b5b600502016000015461032b9190610972565b34101561033757600080fd5b33600184600a811061034c5761034b61086a565b5b6005020160010160006101000a81548173ffffffffffffffffffffffffffffffffffffffff021916908373ffffffffffffffffffffffffffffffffffffffff160217905550505050565b60008054906101000a900473ffffffffffffffffffffffffffffffffffffffff1681565b60008054906101000a900473ffffffffffffffffffffffffffffffffffffffff1673ffffffffffffffffffffffffffffffffffffffff163373ffffffffffffffffffffffffffffffffffffffff161461041257600080fd5b60008054906101000a900473ffffffffffffffffffffffffffffffffffffffff1673ffffffffffffffffffffffffffffffffffffffff166108fc479081150290604051600060405180830381858888f19350505050158015610478573d6000803e3d6000fd5b50565b600181600a811061048b57600080fd5b600502016000915090508060000154908060010160009054906101000a900473ffffffffffffffffffffffffffffffffffffffff16908060020154905083565b6000808390506000839050600082519050815181146104f057600093505050506105a9565b60005b818110156105a05782818151811061050e5761050d61086a565b5b602001015160f81c60f81b7effffffffffffffffffffffffffffffffffffffffffffffffffffffffffffff191684828151811061054e5761054d61086a565b5b602001015160f81c60f81b7effffffffffffffffffffffffffffffffffffffffffffffffffffffffffffff19161461058d5760009450505050506105a9565b808061059890610929565b9150506104f3565b50600193505050505b92915050565b6000604051905090565b600080fd5b600080fd5b6000819050919050565b6105d6816105c3565b81146105e157600080fd5b50565b6000813590506105f3816105cd565b92915050565b600080fd5b600080fd5b6000601f19601f8301169050919050565b7f4e487b7100000000000000000000000000000000000000000000000000000000600052604160045260246000fd5b61064c82610603565b810181811067ffffffffffffffff8211171561066b5761066a610614565b5b80604052505050565b600061067e6105af565b905061068a8282610643565b919050565b600067ffffffffffffffff8211156106aa576106a9610614565b5b6106b382610603565b9050602081019050919050565b82818337600083830152505050565b60006106e26106dd8461068f565b610674565b9050828152602081018484840111156106fe576106fd6105fe565b5b6107098482856106c0565b509392505050565b600082601f830112610726576107256105f9565b5b81356107368482602086016106cf565b91505092915050565b60008060408385031215610756576107556105b9565b5b6000610764858286016105e4565b925050602083013567ffffffffffffffff811115610785576107846105be565b5b61079185828601610711565b9150509250929050565b600073ffffffffffffffffffffffffffffffffffffffff82169050919050565b60006107c68261079b565b9050919050565b6107d6816107bb565b82525050565b60006020820190506107f160008301846107cd565b92915050565b60006020828403121561080d5761080c6105b9565b5b600061081b848285016105e4565b91505092915050565b61082d816105c3565b82525050565b60006060820190506108486000830186610824565b61085560208301856107cd565b6108626040830184610824565b949350505050565b7f4e487b7100000000000000000000000000000000000000000000000000000000600052603260045260246000fd5b7f4e487b7100000000000000000000000000000000000000000000000000000000600052602260045260246000fd5b600060028204905060018216806108e057607f821691505b602082108114156108f4576108f3610899565b5b50919050565b7f4e487b7100000000000000000000000000000000000000000000000000000000600052601160045260246000fd5b6000610934826105c3565b91507fffffffffffffffffffffffffffffffffffffffffffffffffffffffffffffffff821415610967576109666108fa565b5b600182019050919050565b600061097d826105c3565b9150610988836105c3565b9250827fffffffffffffffffffffffffffffffffffffffffffffffffffffffffffffffff038211156109bd576109bc6108fa565b5b82820190509291505056fea2646970667358221220ad41d85a920b4edd2241df08eee5b703a0c01a9bb0fc7c52b0cd89912c8b459464736f6c634300080b0033",
  "immutableReferences": {},
  "source": "// SPDX-License-Identifier: MIT\npragma solidity >=0.4.22 <0.9.0;\nuint256 constant TOTAL_ITEMS = 10;\n\ncontract CoffeeShop {\n  address public ShopOwner = payable(msg.sender);\n  event OrderPlaced(address indexed customer, uint256 indexed itemId);\n  struct CoffeeShopMenu {\n    uint256 price;\n    address owner;\n    uint noOfItems;\n    string[] menuItems;\n    uint256[] menuItemsPrice;\n  }\n\n  CoffeeShopMenu[TOTAL_ITEMS] public items;\n\n  constructor() {\n    ShopOwner = payable(msg.sender);\n    for (uint256 i = 0; i < TOTAL_ITEMS; i++) {\n      items[i].price = 1e16; // initial tax of 0.01 ETH\n      items[i].owner = address(0x0);\n\n      items[i].noOfItems = 5;\n      items[i].menuItems.push(\"Espresso\");\n      items[i].menuItemsPrice.push(5*1e17);\n      items[i].menuItems.push(\"Cappuccino\");\n      items[i].menuItemsPrice.push(7*1e17);\n      items[i].menuItems.push(\"Latte\");\n      items[i].menuItemsPrice.push(4*1e17);\n      items[i].menuItems.push(\"Mocha\");\n      items[i].menuItemsPrice.push(3*1e17);\n      items[i].menuItems.push(\"Americano\");\n      items[i].menuItemsPrice.push(8*1e17);\n      \n    }\n  }\n\n  function stringsEquals(string memory s1, string memory s2) private pure returns (bool) {\n    bytes memory b1 = bytes(s1);\n    bytes memory b2 = bytes(s2);\n    uint256 l1 = b1.length;\n    if (l1 != b2.length) return false;\n    for (uint256 i=0; i<l1; i++) {\n        if (b1[i] != b2[i]) return false;\n    }\n    return true;\n  }\n\n  function buyItem(uint256 _index, string memory itemName) external payable {\n    require(_index < TOTAL_ITEMS && _index >= 0);\n    require(items[_index].owner == address(0x0));\n\n    int f=-1;\n    for(uint i=0;i<items[_index].noOfItems;i++)\n    {\n      if(stringsEquals(itemName, items[_index].menuItems[i]))\n      {\n        f=int(i);\n      }\n    }\n    require(f!=-1);\n    // cost is (0.01 + cost of ordered item) ETH\n    require(msg.value >= ((items[_index].price)+(items[_index].menuItemsPrice[uint(f)])));\n\n    items[_index].owner = msg.sender;\n  }\n  function withdrawMoney() public {\n    require(msg.sender == ShopOwner);\n    payable(ShopOwner).transfer(address(this).balance);\n  }\n}",
  "sourcePath": "D:\\coffee-shop\\contracts\\CoffeeShop.sol",
  "compiler": {
    "name": "solc",
    "version": "0.8.11+commit.d7f03943.Emscripten.clang"
  },
  "schemaVersion": "3.4.11",
  "updatedAt": "2022-12-04T05:58:07.056Z",
  "devdoc": {
    "kind": "dev",
    "methods": {},
    "version": 1
  },
  "userdoc": {
    "kind": "user",
    "methods": {},
    "version": 1
  }
}